{
  "_format": "hh-sol-artifact-1",
  "contractName": "horoscopeNFT",
  "sourceName": "contracts/horoscopeNFT.sol",
  "abi": [
    {
      "inputs": [],
      "stateMutability": "nonpayable",
      "type": "constructor"
    },
    {
      "anonymous": false,
      "inputs": [
        {
          "indexed": true,
          "internalType": "address",
          "name": "owner",
          "type": "address"
        },
        {
          "indexed": true,
          "internalType": "address",
          "name": "approved",
          "type": "address"
        },
        {
          "indexed": true,
          "internalType": "uint256",
          "name": "tokenId",
          "type": "uint256"
        }
      ],
      "name": "Approval",
      "type": "event"
    },
    {
      "anonymous": false,
      "inputs": [
        {
          "indexed": true,
          "internalType": "address",
          "name": "owner",
          "type": "address"
        },
        {
          "indexed": true,
          "internalType": "address",
          "name": "operator",
          "type": "address"
        },
        {
          "indexed": false,
          "internalType": "bool",
          "name": "approved",
          "type": "bool"
        }
      ],
      "name": "ApprovalForAll",
      "type": "event"
    },
    {
      "anonymous": false,
      "inputs": [
        {
          "indexed": true,
          "internalType": "address",
          "name": "from",
          "type": "address"
        },
        {
          "indexed": true,
          "internalType": "address",
          "name": "to",
          "type": "address"
        },
        {
          "indexed": true,
          "internalType": "uint256",
          "name": "tokenId",
          "type": "uint256"
        }
      ],
      "name": "Transfer",
      "type": "event"
    },
    {
      "inputs": [
        {
          "internalType": "address",
          "name": "to",
          "type": "address"
        },
        {
          "internalType": "uint256",
          "name": "tokenId",
          "type": "uint256"
        }
      ],
      "name": "approve",
      "outputs": [],
      "stateMutability": "nonpayable",
      "type": "function"
    },
    {
      "inputs": [
        {
          "internalType": "address",
          "name": "owner",
          "type": "address"
        }
      ],
      "name": "balanceOf",
      "outputs": [
        {
          "internalType": "uint256",
          "name": "",
          "type": "uint256"
        }
      ],
      "stateMutability": "view",
      "type": "function"
    },
    {
      "inputs": [
        {
          "internalType": "uint256",
          "name": "tokenId",
          "type": "uint256"
        }
      ],
      "name": "getApproved",
      "outputs": [
        {
          "internalType": "address",
          "name": "",
          "type": "address"
        }
      ],
      "stateMutability": "view",
      "type": "function"
    },
    {
      "inputs": [
        {
          "internalType": "address",
          "name": "owner",
          "type": "address"
        },
        {
          "internalType": "address",
          "name": "operator",
          "type": "address"
        }
      ],
      "name": "isApprovedForAll",
      "outputs": [
        {
          "internalType": "bool",
          "name": "",
          "type": "bool"
        }
      ],
      "stateMutability": "view",
      "type": "function"
    },
    {
      "inputs": [
        {
          "internalType": "address",
          "name": "recipient",
          "type": "address"
        },
        {
          "internalType": "string",
          "name": "zodiacSign",
          "type": "string"
        }
      ],
      "name": "mintNFT",
      "outputs": [
        {
          "internalType": "uint256",
          "name": "",
          "type": "uint256"
        }
      ],
      "stateMutability": "nonpayable",
      "type": "function"
    },
    {
      "inputs": [],
      "name": "name",
      "outputs": [
        {
          "internalType": "string",
          "name": "",
          "type": "string"
        }
      ],
      "stateMutability": "view",
      "type": "function"
    },
    {
      "inputs": [
        {
          "internalType": "uint256",
          "name": "tokenId",
          "type": "uint256"
        }
      ],
      "name": "ownerOf",
      "outputs": [
        {
          "internalType": "address",
          "name": "",
          "type": "address"
        }
      ],
      "stateMutability": "view",
      "type": "function"
    },
    {
      "inputs": [
        {
          "internalType": "address",
          "name": "from",
          "type": "address"
        },
        {
          "internalType": "address",
          "name": "to",
          "type": "address"
        },
        {
          "internalType": "uint256",
          "name": "tokenId",
          "type": "uint256"
        }
      ],
      "name": "safeTransferFrom",
      "outputs": [],
      "stateMutability": "nonpayable",
      "type": "function"
    },
    {
      "inputs": [
        {
          "internalType": "address",
          "name": "from",
          "type": "address"
        },
        {
          "internalType": "address",
          "name": "to",
          "type": "address"
        },
        {
          "internalType": "uint256",
          "name": "tokenId",
          "type": "uint256"
        },
        {
          "internalType": "bytes",
          "name": "data",
          "type": "bytes"
        }
      ],
      "name": "safeTransferFrom",
      "outputs": [],
      "stateMutability": "nonpayable",
      "type": "function"
    },
    {
      "inputs": [
        {
          "internalType": "address",
          "name": "operator",
          "type": "address"
        },
        {
          "internalType": "bool",
          "name": "approved",
          "type": "bool"
        }
      ],
      "name": "setApprovalForAll",
      "outputs": [],
      "stateMutability": "nonpayable",
      "type": "function"
    },
    {
      "inputs": [
        {
          "internalType": "bytes4",
          "name": "interfaceId",
          "type": "bytes4"
        }
      ],
      "name": "supportsInterface",
      "outputs": [
        {
          "internalType": "bool",
          "name": "",
          "type": "bool"
        }
      ],
      "stateMutability": "view",
      "type": "function"
    },
    {
      "inputs": [],
      "name": "symbol",
      "outputs": [
        {
          "internalType": "string",
          "name": "",
          "type": "string"
        }
      ],
      "stateMutability": "view",
      "type": "function"
    },
    {
      "inputs": [
        {
          "internalType": "uint256",
          "name": "tokenId",
          "type": "uint256"
        }
      ],
      "name": "tokenURI",
      "outputs": [
        {
          "internalType": "string",
          "name": "",
          "type": "string"
        }
      ],
      "stateMutability": "view",
      "type": "function"
    },
    {
      "inputs": [
        {
          "internalType": "address",
          "name": "from",
          "type": "address"
        },
        {
          "internalType": "address",
          "name": "to",
          "type": "address"
        },
        {
          "internalType": "uint256",
          "name": "tokenId",
          "type": "uint256"
        }
      ],
      "name": "transferFrom",
      "outputs": [],
      "stateMutability": "nonpayable",
      "type": "function"
    }
  ],
  "bytecode": "0x608060405260405180610160016040528061012f81526020016200368a61012f91396008908162000031919062000352565b503480156200003f57600080fd5b506040518060400160405280600d81526020017f486f726f73636f7065204e4654000000000000000000000000000000000000008152506040518060400160405280600481526020017f484e4654000000000000000000000000000000000000000000000000000000008152508160009081620000bd919062000352565b508060019081620000cf919062000352565b50505062000439565b600081519050919050565b7f4e487b7100000000000000000000000000000000000000000000000000000000600052604160045260246000fd5b7f4e487b7100000000000000000000000000000000000000000000000000000000600052602260045260246000fd5b600060028204905060018216806200015a57607f821691505b60208210810362000170576200016f62000112565b5b50919050565b60008190508160005260206000209050919050565b60006020601f8301049050919050565b600082821b905092915050565b600060088302620001da7fffffffffffffffffffffffffffffffffffffffffffffffffffffffffffffffff826200019b565b620001e686836200019b565b95508019841693508086168417925050509392505050565b6000819050919050565b6000819050919050565b6000620002336200022d6200022784620001fe565b62000208565b620001fe565b9050919050565b6000819050919050565b6200024f8362000212565b620002676200025e826200023a565b848454620001a8565b825550505050565b600090565b6200027e6200026f565b6200028b81848462000244565b505050565b5b81811015620002b357620002a760008262000274565b60018101905062000291565b5050565b601f8211156200030257620002cc8162000176565b620002d7846200018b565b81016020851015620002e7578190505b620002ff620002f6856200018b565b83018262000290565b50505b505050565b600082821c905092915050565b6000620003276000198460080262000307565b1980831691505092915050565b600062000342838362000314565b9150826002028217905092915050565b6200035d82620000d8565b67ffffffffffffffff811115620003795762000378620000e3565b5b62000385825462000141565b62000392828285620002b7565b600060209050601f831160018114620003ca5760008415620003b5578287015190505b620003c1858262000334565b86555062000431565b601f198416620003da8662000176565b60005b828110156200040457848901518255600182019150602085019450602081019050620003dd565b8683101562000424578489015162000420601f89168262000314565b8355505b6001600288020188555050505b505050505050565b61324180620004496000396000f3fe608060405234801561001057600080fd5b50600436106100ea5760003560e01c806370a082311161008c578063b88d4fde11610066578063b88d4fde1461025b578063c87b56dd14610277578063e985e9c5146102a7578063eacabe14146102d7576100ea565b806370a08231146101f157806395d89b4114610221578063a22cb4651461023f576100ea565b8063095ea7b3116100c8578063095ea7b31461016d57806323b872dd1461018957806342842e0e146101a55780636352211e146101c1576100ea565b806301ffc9a7146100ef57806306fdde031461011f578063081812fc1461013d575b600080fd5b61010960048036038101906101049190611c55565b610307565b6040516101169190611c9d565b60405180910390f35b6101276103e9565b6040516101349190611d48565b60405180910390f35b61015760048036038101906101529190611da0565b61047b565b6040516101649190611e0e565b60405180910390f35b61018760048036038101906101829190611e55565b6104c1565b005b6101a3600480360381019061019e9190611e95565b6105d8565b005b6101bf60048036038101906101ba9190611e95565b610638565b005b6101db60048036038101906101d69190611da0565b610658565b6040516101e89190611e0e565b60405180910390f35b61020b60048036038101906102069190611ee8565b6106de565b6040516102189190611f24565b60405180910390f35b610229610795565b6040516102369190611d48565b60405180910390f35b61025960048036038101906102549190611f6b565b610827565b005b610275600480360381019061027091906120e0565b61083d565b005b610291600480360381019061028c9190611da0565b61089f565b60405161029e9190611d48565b60405180910390f35b6102c160048036038101906102bc9190612163565b6109b1565b6040516102ce9190611c9d565b60405180910390f35b6102f160048036038101906102ec9190612244565b610a45565b6040516102fe9190611f24565b60405180910390f35b60007f80ac58cd000000000000000000000000000000000000000000000000000000007bffffffffffffffffffffffffffffffffffffffffffffffffffffffff1916827bffffffffffffffffffffffffffffffffffffffffffffffffffffffff191614806103d257507f5b5e139f000000000000000000000000000000000000000000000000000000007bffffffffffffffffffffffffffffffffffffffffffffffffffffffff1916827bffffffffffffffffffffffffffffffffffffffffffffffffffffffff1916145b806103e257506103e182610b03565b5b9050919050565b6060600080546103f8906122cf565b80601f0160208091040260200160405190810160405280929190818152602001828054610424906122cf565b80156104715780601f1061044657610100808354040283529160200191610471565b820191906000526020600020905b81548152906001019060200180831161045457829003601f168201915b5050505050905090565b600061048682610b6d565b6004600083815260200190815260200160002060009054906101000a900473ffffffffffffffffffffffffffffffffffffffff169050919050565b60006104cc82610658565b90508073ffffffffffffffffffffffffffffffffffffffff168373ffffffffffffffffffffffffffffffffffffffff160361053c576040517f08c379a000000000000000000000000000000000000000000000000000000000815260040161053390612372565b60405180910390fd5b8073ffffffffffffffffffffffffffffffffffffffff1661055b610bb8565b73ffffffffffffffffffffffffffffffffffffffff16148061058a575061058981610584610bb8565b6109b1565b5b6105c9576040517f08c379a00000000000000000000000000000000000000000000000000000000081526004016105c090612404565b60405180910390fd5b6105d38383610bc0565b505050565b6105e96105e3610bb8565b82610c79565b610628576040517f08c379a000000000000000000000000000000000000000000000000000000000815260040161061f90612496565b60405180910390fd5b610633838383610d0e565b505050565b6106538383836040518060200160405280600081525061083d565b505050565b60008061066483611007565b9050600073ffffffffffffffffffffffffffffffffffffffff168173ffffffffffffffffffffffffffffffffffffffff16036106d5576040517f08c379a00000000000000000000000000000000000000000000000000000000081526004016106cc90612502565b60405180910390fd5b80915050919050565b60008073ffffffffffffffffffffffffffffffffffffffff168273ffffffffffffffffffffffffffffffffffffffff160361074e576040517f08c379a000000000000000000000000000000000000000000000000000000000815260040161074590612594565b60405180910390fd5b600360008373ffffffffffffffffffffffffffffffffffffffff1673ffffffffffffffffffffffffffffffffffffffff168152602001908152602001600020549050919050565b6060600180546107a4906122cf565b80601f01602080910402602001604051908101604052809291908181526020018280546107d0906122cf565b801561081d5780601f106107f25761010080835404028352916020019161081d565b820191906000526020600020905b81548152906001019060200180831161080057829003601f168201915b5050505050905090565b610839610832610bb8565b8383611044565b5050565b61084e610848610bb8565b83610c79565b61088d576040517f08c379a000000000000000000000000000000000000000000000000000000000815260040161088490612496565b60405180910390fd5b610899848484846111b0565b50505050565b60606108aa82610b6d565b60006006600084815260200190815260200160002080546108ca906122cf565b80601f01602080910402602001604051908101604052809291908181526020018280546108f6906122cf565b80156109435780601f1061091857610100808354040283529160200191610943565b820191906000526020600020905b81548152906001019060200180831161092657829003601f168201915b50505050509050600061095461120c565b905060008151036109695781925050506109ac565b60008251111561099e5780826040516020016109869291906125f0565b604051602081830303815290604052925050506109ac565b6109a784611223565b925050505b919050565b6000600560008473ffffffffffffffffffffffffffffffffffffffff1673ffffffffffffffffffffffffffffffffffffffff16815260200190815260200160002060008373ffffffffffffffffffffffffffffffffffffffff1673ffffffffffffffffffffffffffffffffffffffff16815260200190815260200160002060009054906101000a900460ff16905092915050565b6000610a51600761128b565b6000600883604051602001610a679291906126f8565b60405160208183030381529060405290506000610aae8485610a88856112a1565b604051602001610a9a939291906128ef565b6040516020818303038152906040526112a1565b9050600081604051602001610ac39190612998565b60405160208183030381529060405290506000610ae06007611419565b9050610aec8782611427565b610af68183611644565b8094505050505092915050565b60007f01ffc9a7000000000000000000000000000000000000000000000000000000007bffffffffffffffffffffffffffffffffffffffffffffffffffffffff1916827bffffffffffffffffffffffffffffffffffffffffffffffffffffffff1916149050919050565b610b76816116b1565b610bb5576040517f08c379a0000000000000000000000000000000000000000000000000000000008152600401610bac90612502565b60405180910390fd5b50565b600033905090565b816004600083815260200190815260200160002060006101000a81548173ffffffffffffffffffffffffffffffffffffffff021916908373ffffffffffffffffffffffffffffffffffffffff160217905550808273ffffffffffffffffffffffffffffffffffffffff16610c3383610658565b73ffffffffffffffffffffffffffffffffffffffff167f8c5be1e5ebec7d5bd14f71427d1e84f3dd0314c0f7b2291e5b200ac8c7c3b92560405160405180910390a45050565b600080610c8583610658565b90508073ffffffffffffffffffffffffffffffffffffffff168473ffffffffffffffffffffffffffffffffffffffff161480610cc75750610cc681856109b1565b5b80610d0557508373ffffffffffffffffffffffffffffffffffffffff16610ced8461047b565b73ffffffffffffffffffffffffffffffffffffffff16145b91505092915050565b8273ffffffffffffffffffffffffffffffffffffffff16610d2e82610658565b73ffffffffffffffffffffffffffffffffffffffff1614610d84576040517f08c379a0000000000000000000000000000000000000000000000000000000008152600401610d7b90612a2c565b60405180910390fd5b600073ffffffffffffffffffffffffffffffffffffffff168273ffffffffffffffffffffffffffffffffffffffff1603610df3576040517f08c379a0000000000000000000000000000000000000000000000000000000008152600401610dea90612abe565b60405180910390fd5b610e0083838360016116f2565b8273ffffffffffffffffffffffffffffffffffffffff16610e2082610658565b73ffffffffffffffffffffffffffffffffffffffff1614610e76576040517f08c379a0000000000000000000000000000000000000000000000000000000008152600401610e6d90612a2c565b60405180910390fd5b6004600082815260200190815260200160002060006101000a81549073ffffffffffffffffffffffffffffffffffffffff02191690556001600360008573ffffffffffffffffffffffffffffffffffffffff1673ffffffffffffffffffffffffffffffffffffffff168152602001908152602001600020600082825403925050819055506001600360008473ffffffffffffffffffffffffffffffffffffffff1673ffffffffffffffffffffffffffffffffffffffff16815260200190815260200160002060008282540192505081905550816002600083815260200190815260200160002060006101000a81548173ffffffffffffffffffffffffffffffffffffffff021916908373ffffffffffffffffffffffffffffffffffffffff160217905550808273ffffffffffffffffffffffffffffffffffffffff168473ffffffffffffffffffffffffffffffffffffffff167fddf252ad1be2c89b69c2b068fc378daa952ba7f163c4a11628f55a4df523b3ef60405160405180910390a46110028383836001611818565b505050565b60006002600083815260200190815260200160002060009054906101000a900473ffffffffffffffffffffffffffffffffffffffff169050919050565b8173ffffffffffffffffffffffffffffffffffffffff168373ffffffffffffffffffffffffffffffffffffffff16036110b2576040517f08c379a00000000000000000000000000000000000000000000000000000000081526004016110a990612b2a565b60405180910390fd5b80600560008573ffffffffffffffffffffffffffffffffffffffff1673ffffffffffffffffffffffffffffffffffffffff16815260200190815260200160002060008473ffffffffffffffffffffffffffffffffffffffff1673ffffffffffffffffffffffffffffffffffffffff16815260200190815260200160002060006101000a81548160ff0219169083151502179055508173ffffffffffffffffffffffffffffffffffffffff168373ffffffffffffffffffffffffffffffffffffffff167f17307eab39ab6107e8899845ad3d59bd9653f200f220920489ca2b5937696c31836040516111a39190611c9d565b60405180910390a3505050565b6111bb848484610d0e565b6111c78484848461181e565b611206576040517f08c379a00000000000000000000000000000000000000000000000000000000081526004016111fd90612bbc565b60405180910390fd5b50505050565b606060405180602001604052806000815250905090565b606061122e82610b6d565b600061123861120c565b905060008151116112585760405180602001604052806000815250611283565b80611262846119a5565b6040516020016112739291906125f0565b6040516020818303038152906040525b915050919050565b6001816000016000828254019250508190555050565b606060008251036112c357604051806020016040528060008152509050611414565b60006040518060600160405280604081526020016131cc60409139905060006003600285516112f29190612c0b565b6112fc9190612c6e565b60046113089190612c9f565b905060006020826113199190612c0b565b67ffffffffffffffff81111561133257611331611fb5565b5b6040519080825280601f01601f1916602001820160405280156113645781602001600182028036833780820191505090505b509050818152600183018586518101602084015b818310156113d3576003830192508251603f8160121c168501518253600182019150603f81600c1c168501518253600182019150603f8160061c168501518253600182019150603f8116850151825360018201915050611378565b6003895106600181146113ed57600281146113fd57611408565b613d3d60f01b6002830352611408565b603d60f81b60018303525b50505050508093505050505b919050565b600081600001549050919050565b600073ffffffffffffffffffffffffffffffffffffffff168273ffffffffffffffffffffffffffffffffffffffff1603611496576040517f08c379a000000000000000000000000000000000000000000000000000000000815260040161148d90612d2d565b60405180910390fd5b61149f816116b1565b156114df576040517f08c379a00000000000000000000000000000000000000000000000000000000081526004016114d690612d99565b60405180910390fd5b6114ed6000838360016116f2565b6114f6816116b1565b15611536576040517f08c379a000000000000000000000000000000000000000000000000000000000815260040161152d90612d99565b60405180910390fd5b6001600360008473ffffffffffffffffffffffffffffffffffffffff1673ffffffffffffffffffffffffffffffffffffffff16815260200190815260200160002060008282540192505081905550816002600083815260200190815260200160002060006101000a81548173ffffffffffffffffffffffffffffffffffffffff021916908373ffffffffffffffffffffffffffffffffffffffff160217905550808273ffffffffffffffffffffffffffffffffffffffff16600073ffffffffffffffffffffffffffffffffffffffff167fddf252ad1be2c89b69c2b068fc378daa952ba7f163c4a11628f55a4df523b3ef60405160405180910390a4611640600083836001611818565b5050565b61164d826116b1565b61168c576040517f08c379a000000000000000000000000000000000000000000000000000000000815260040161168390612e2b565b60405180910390fd5b806006600084815260200190815260200160002090816116ac9190612fe2565b505050565b60008073ffffffffffffffffffffffffffffffffffffffff166116d383611007565b73ffffffffffffffffffffffffffffffffffffffff1614159050919050565b600181111561181257600073ffffffffffffffffffffffffffffffffffffffff168473ffffffffffffffffffffffffffffffffffffffff16146117865780600360008673ffffffffffffffffffffffffffffffffffffffff1673ffffffffffffffffffffffffffffffffffffffff168152602001908152602001600020600082825461177e91906130b4565b925050819055505b600073ffffffffffffffffffffffffffffffffffffffff168373ffffffffffffffffffffffffffffffffffffffff16146118115780600360008573ffffffffffffffffffffffffffffffffffffffff1673ffffffffffffffffffffffffffffffffffffffff16815260200190815260200160002060008282546118099190612c0b565b925050819055505b5b50505050565b50505050565b600061183f8473ffffffffffffffffffffffffffffffffffffffff16611a73565b15611998578373ffffffffffffffffffffffffffffffffffffffff1663150b7a02611868610bb8565b8786866040518563ffffffff1660e01b815260040161188a949392919061313d565b6020604051808303816000875af19250505080156118c657506040513d601f19601f820116820180604052508101906118c3919061319e565b60015b611948573d80600081146118f6576040519150601f19603f3d011682016040523d82523d6000602084013e6118fb565b606091505b506000815103611940576040517f08c379a000000000000000000000000000000000000000000000000000000000815260040161193790612bbc565b60405180910390fd5b805181602001fd5b63150b7a0260e01b7bffffffffffffffffffffffffffffffffffffffffffffffffffffffff1916817bffffffffffffffffffffffffffffffffffffffffffffffffffffffff19161491505061199d565b600190505b949350505050565b6060600060016119b484611a96565b01905060008167ffffffffffffffff8111156119d3576119d2611fb5565b5b6040519080825280601f01601f191660200182016040528015611a055781602001600182028036833780820191505090505b509050600082602001820190505b600115611a68578080600190039150507f3031323334353637383961626364656600000000000000000000000000000000600a86061a8153600a8581611a5c57611a5b612c3f565b5b04945060008503611a13575b819350505050919050565b6000808273ffffffffffffffffffffffffffffffffffffffff163b119050919050565b600080600090507a184f03e93ff9f4daa797ed6e38ed64bf6a1f0100000000000000008310611af4577a184f03e93ff9f4daa797ed6e38ed64bf6a1f0100000000000000008381611aea57611ae9612c3f565b5b0492506040810190505b6d04ee2d6d415b85acef81000000008310611b31576d04ee2d6d415b85acef81000000008381611b2757611b26612c3f565b5b0492506020810190505b662386f26fc100008310611b6057662386f26fc100008381611b5657611b55612c3f565b5b0492506010810190505b6305f5e1008310611b89576305f5e1008381611b7f57611b7e612c3f565b5b0492506008810190505b6127108310611bae576127108381611ba457611ba3612c3f565b5b0492506004810190505b60648310611bd15760648381611bc757611bc6612c3f565b5b0492506002810190505b600a8310611be0576001810190505b80915050919050565b6000604051905090565b600080fd5b600080fd5b60007fffffffff0000000000000000000000000000000000000000000000000000000082169050919050565b611c3281611bfd565b8114611c3d57600080fd5b50565b600081359050611c4f81611c29565b92915050565b600060208284031215611c6b57611c6a611bf3565b5b6000611c7984828501611c40565b91505092915050565b60008115159050919050565b611c9781611c82565b82525050565b6000602082019050611cb26000830184611c8e565b92915050565b600081519050919050565b600082825260208201905092915050565b60005b83811015611cf2578082015181840152602081019050611cd7565b60008484015250505050565b6000601f19601f8301169050919050565b6000611d1a82611cb8565b611d248185611cc3565b9350611d34818560208601611cd4565b611d3d81611cfe565b840191505092915050565b60006020820190508181036000830152611d628184611d0f565b905092915050565b6000819050919050565b611d7d81611d6a565b8114611d8857600080fd5b50565b600081359050611d9a81611d74565b92915050565b600060208284031215611db657611db5611bf3565b5b6000611dc484828501611d8b565b91505092915050565b600073ffffffffffffffffffffffffffffffffffffffff82169050919050565b6000611df882611dcd565b9050919050565b611e0881611ded565b82525050565b6000602082019050611e236000830184611dff565b92915050565b611e3281611ded565b8114611e3d57600080fd5b50565b600081359050611e4f81611e29565b92915050565b60008060408385031215611e6c57611e6b611bf3565b5b6000611e7a85828601611e40565b9250506020611e8b85828601611d8b565b9150509250929050565b600080600060608486031215611eae57611ead611bf3565b5b6000611ebc86828701611e40565b9350506020611ecd86828701611e40565b9250506040611ede86828701611d8b565b9150509250925092565b600060208284031215611efe57611efd611bf3565b5b6000611f0c84828501611e40565b91505092915050565b611f1e81611d6a565b82525050565b6000602082019050611f396000830184611f15565b92915050565b611f4881611c82565b8114611f5357600080fd5b50565b600081359050611f6581611f3f565b92915050565b60008060408385031215611f8257611f81611bf3565b5b6000611f9085828601611e40565b9250506020611fa185828601611f56565b9150509250929050565b600080fd5b600080fd5b7f4e487b7100000000000000000000000000000000000000000000000000000000600052604160045260246000fd5b611fed82611cfe565b810181811067ffffffffffffffff8211171561200c5761200b611fb5565b5b80604052505050565b600061201f611be9565b905061202b8282611fe4565b919050565b600067ffffffffffffffff82111561204b5761204a611fb5565b5b61205482611cfe565b9050602081019050919050565b82818337600083830152505050565b600061208361207e84612030565b612015565b90508281526020810184848401111561209f5761209e611fb0565b5b6120aa848285612061565b509392505050565b600082601f8301126120c7576120c6611fab565b5b81356120d7848260208601612070565b91505092915050565b600080600080608085870312156120fa576120f9611bf3565b5b600061210887828801611e40565b945050602061211987828801611e40565b935050604061212a87828801611d8b565b925050606085013567ffffffffffffffff81111561214b5761214a611bf8565b5b612157878288016120b2565b91505092959194509250565b6000806040838503121561217a57612179611bf3565b5b600061218885828601611e40565b925050602061219985828601611e40565b9150509250929050565b600067ffffffffffffffff8211156121be576121bd611fb5565b5b6121c782611cfe565b9050602081019050919050565b60006121e76121e2846121a3565b612015565b90508281526020810184848401111561220357612202611fb0565b5b61220e848285612061565b509392505050565b600082601f83011261222b5761222a611fab565b5b813561223b8482602086016121d4565b91505092915050565b6000806040838503121561225b5761225a611bf3565b5b600061226985828601611e40565b925050602083013567ffffffffffffffff81111561228a57612289611bf8565b5b61229685828601612216565b9150509250929050565b7f4e487b7100000000000000000000000000000000000000000000000000000000600052602260045260246000fd5b600060028204905060018216806122e757607f821691505b6020821081036122fa576122f96122a0565b5b50919050565b7f4552433732313a20617070726f76616c20746f2063757272656e74206f776e6560008201527f7200000000000000000000000000000000000000000000000000000000000000602082015250565b600061235c602183611cc3565b915061236782612300565b604082019050919050565b6000602082019050818103600083015261238b8161234f565b9050919050565b7f4552433732313a20617070726f76652063616c6c6572206973206e6f7420746f60008201527f6b656e206f776e6572206f7220617070726f76656420666f7220616c6c000000602082015250565b60006123ee603d83611cc3565b91506123f982612392565b604082019050919050565b6000602082019050818103600083015261241d816123e1565b9050919050565b7f4552433732313a2063616c6c6572206973206e6f7420746f6b656e206f776e6560008201527f72206f7220617070726f76656400000000000000000000000000000000000000602082015250565b6000612480602d83611cc3565b915061248b82612424565b604082019050919050565b600060208201905081810360008301526124af81612473565b9050919050565b7f4552433732313a20696e76616c696420746f6b656e2049440000000000000000600082015250565b60006124ec601883611cc3565b91506124f7826124b6565b602082019050919050565b6000602082019050818103600083015261251b816124df565b9050919050565b7f4552433732313a2061646472657373207a65726f206973206e6f74206120766160008201527f6c6964206f776e65720000000000000000000000000000000000000000000000602082015250565b600061257e602983611cc3565b915061258982612522565b604082019050919050565b600060208201905081810360008301526125ad81612571565b9050919050565b600081905092915050565b60006125ca82611cb8565b6125d481856125b4565b93506125e4818560208601611cd4565b80840191505092915050565b60006125fc82856125bf565b915061260882846125bf565b91508190509392505050565b60008190508160005260206000209050919050565b60008154612636816122cf565b61264081866125b4565b9450600182166000811461265b5760018114612670576126a3565b60ff19831686528115158202860193506126a3565b61267985612614565b60005b8381101561269b5781548189015260018201915060208101905061267c565b838801955050505b50505092915050565b7f3c2f746578743e3c2f7376673e00000000000000000000000000000000000000600082015250565b60006126e2600d836125b4565b91506126ed826126ac565b600d82019050919050565b60006127048285612629565b915061271082846125bf565b915061271b826126d5565b91508190509392505050565b7f7b226e616d65223a202200000000000000000000000000000000000000000000600082015250565b600061275d600a836125b4565b915061276882612727565b600a82019050919050565b7f222c20226465736372697074696f6e223a20224f6e2d636861696e205a6f646960008201527f6163205369676e204e465473222c202261747472696275746573223a205b7b2260208201527f74726169745f74797065223a20225a6f64696163205369676e222c202276616c60408201527f7565223a20220000000000000000000000000000000000000000000000000000606082015250565b600061281b6066836125b4565b915061282682612773565b606682019050919050565b7f227d5d2c2022696d616765223a2022646174613a696d6167652f7376672b786d60008201527f6c3b6261736536342c0000000000000000000000000000000000000000000000602082015250565b600061288d6029836125b4565b915061289882612831565b602982019050919050565b7f227d000000000000000000000000000000000000000000000000000000000000600082015250565b60006128d96002836125b4565b91506128e4826128a3565b600282019050919050565b60006128fa82612750565b915061290682866125bf565b91506129118261280e565b915061291d82856125bf565b915061292882612880565b915061293482846125bf565b915061293f826128cc565b9150819050949350505050565b7f646174613a6170706c69636174696f6e2f6a736f6e3b6261736536342c000000600082015250565b6000612982601d836125b4565b915061298d8261294c565b601d82019050919050565b60006129a382612975565b91506129af82846125bf565b915081905092915050565b7f4552433732313a207472616e736665722066726f6d20696e636f72726563742060008201527f6f776e6572000000000000000000000000000000000000000000000000000000602082015250565b6000612a16602583611cc3565b9150612a21826129ba565b604082019050919050565b60006020820190508181036000830152612a4581612a09565b9050919050565b7f4552433732313a207472616e7366657220746f20746865207a65726f2061646460008201527f7265737300000000000000000000000000000000000000000000000000000000602082015250565b6000612aa8602483611cc3565b9150612ab382612a4c565b604082019050919050565b60006020820190508181036000830152612ad781612a9b565b9050919050565b7f4552433732313a20617070726f766520746f2063616c6c657200000000000000600082015250565b6000612b14601983611cc3565b9150612b1f82612ade565b602082019050919050565b60006020820190508181036000830152612b4381612b07565b9050919050565b7f4552433732313a207472616e7366657220746f206e6f6e20455243373231526560008201527f63656976657220696d706c656d656e7465720000000000000000000000000000602082015250565b6000612ba6603283611cc3565b9150612bb182612b4a565b604082019050919050565b60006020820190508181036000830152612bd581612b99565b9050919050565b7f4e487b7100000000000000000000000000000000000000000000000000000000600052601160045260246000fd5b6000612c1682611d6a565b9150612c2183611d6a565b9250828201905080821115612c3957612c38612bdc565b5b92915050565b7f4e487b7100000000000000000000000000000000000000000000000000000000600052601260045260246000fd5b6000612c7982611d6a565b9150612c8483611d6a565b925082612c9457612c93612c3f565b5b828204905092915050565b6000612caa82611d6a565b9150612cb583611d6a565b9250828202612cc381611d6a565b91508282048414831517612cda57612cd9612bdc565b5b5092915050565b7f4552433732313a206d696e7420746f20746865207a65726f2061646472657373600082015250565b6000612d17602083611cc3565b9150612d2282612ce1565b602082019050919050565b60006020820190508181036000830152612d4681612d0a565b9050919050565b7f4552433732313a20746f6b656e20616c7265616479206d696e74656400000000600082015250565b6000612d83601c83611cc3565b9150612d8e82612d4d565b602082019050919050565b60006020820190508181036000830152612db281612d76565b9050919050565b7f45524337323155524953746f726167653a2055524920736574206f66206e6f6e60008201527f6578697374656e7420746f6b656e000000000000000000000000000000000000602082015250565b6000612e15602e83611cc3565b9150612e2082612db9565b604082019050919050565b60006020820190508181036000830152612e4481612e08565b9050919050565b60006020601f8301049050919050565b600082821b905092915050565b600060088302612e987fffffffffffffffffffffffffffffffffffffffffffffffffffffffffffffffff82612e5b565b612ea28683612e5b565b95508019841693508086168417925050509392505050565b6000819050919050565b6000612edf612eda612ed584611d6a565b612eba565b611d6a565b9050919050565b6000819050919050565b612ef983612ec4565b612f0d612f0582612ee6565b848454612e68565b825550505050565b600090565b612f22612f15565b612f2d818484612ef0565b505050565b5b81811015612f5157612f46600082612f1a565b600181019050612f33565b5050565b601f821115612f9657612f6781612614565b612f7084612e4b565b81016020851015612f7f578190505b612f93612f8b85612e4b565b830182612f32565b50505b505050565b600082821c905092915050565b6000612fb960001984600802612f9b565b1980831691505092915050565b6000612fd28383612fa8565b9150826002028217905092915050565b612feb82611cb8565b67ffffffffffffffff81111561300457613003611fb5565b5b61300e82546122cf565b613019828285612f55565b600060209050601f83116001811461304c576000841561303a578287015190505b6130448582612fc6565b8655506130ac565b601f19841661305a86612614565b60005b828110156130825784890151825560018201915060208501945060208101905061305d565b8683101561309f578489015161309b601f891682612fa8565b8355505b6001600288020188555050505b505050505050565b60006130bf82611d6a565b91506130ca83611d6a565b92508282039050818111156130e2576130e1612bdc565b5b92915050565b600081519050919050565b600082825260208201905092915050565b600061310f826130e8565b61311981856130f3565b9350613129818560208601611cd4565b61313281611cfe565b840191505092915050565b60006080820190506131526000830187611dff565b61315f6020830186611dff565b61316c6040830185611f15565b818103606083015261317e8184613104565b905095945050505050565b60008151905061319881611c29565b92915050565b6000602082840312156131b4576131b3611bf3565b5b60006131c284828501613189565b9150509291505056fe4142434445464748494a4b4c4d4e4f505152535455565758595a6162636465666768696a6b6c6d6e6f707172737475767778797a303132333435363738392b2fa26469706673582212208caf8be44dbc46f9c98b2bcb6a9724b5a3bcd2caea777278f598d59388157ae964736f6c634300081100333c73766720786d6c6e733d27687474703a2f2f7777772e77332e6f72672f323030302f73766727207072657365727665417370656374526174696f3d27784d696e594d696e206d656574272076696577426f783d273020302033353020333530273e3c7374796c653e2e62617365207b2066696c6c3a2077686974653b20666f6e742d66616d696c793a2073657269663b20666f6e742d73697a653a20323470783b207d3c2f7374796c653e3c726563742077696474683d273130302527206865696768743d2731303025272066696c6c3d27626c61636b27202f3e3c7465787420783d273530252720793d273530252720636c6173733d27626173652720646f6d696e616e742d626173656c696e653d276d6964646c652720746578742d616e63686f723d276d6964646c65273e",
  "linkReferences": {},
  "deployedLinkReferences": {}
}